:100000000C942A000C942D010C9456010C947F0141
:100010000C9447000C9447000C9447000C94470044
:100020000C9447000C9447000C94D1010C94A80147
:100030000C9447000C9447000C9447000C94470024
:100040000C9447000C9447000C9447000C94470014
:100050000C94470011241FBECFE5D8E0DEBFCDBF12
:1000600010E0A0E6B0E0E8EFF3E002C005900D92EA
:10007000A437B107D9F720E0A4E7B0E001C01D9292
:10008000AE37B207E1F70E9491000C94FA010C948C
:100090000000CF93DF9300D000D0CDB7DEB700973C
:1000A00091F0FC018081898381818A831B82828116
:1000B0008C83CE0101960E94960060E0CE010196ED
:1000C0000E94D00001C080E00F900F900F900F9021
:1000D000DF91CF910895CF93DF9300D000D0CDB7BB
:1000E000DEB7009769F0FC018081898381818A8372
:1000F0001B8282818C83CE0101960E940F0101C078
:1001000080E00F900F900F900F90DF91CF910895A6
:1001100080E690E00E94490080E690E00E946B003B
:10012000FBCF0E94880080E090E00895FC01892BBD
:1001300099F18281882319F08130B9F02FC0A08114
:10014000B0E0AA0FBB1FA559BF4F0D90BC91A02DC9
:100150002C9181E090E0018002C0880F991F0A94E1
:10016000E2F7822B8C9381E00895A081B0E0AA0F82
:10017000BB1FA559BF4F0D90BC91A02D2C9181E0C4
:1001800090E0018002C0880F991F0A94E2F78095E1
:1001900082238C9381E0089580E0089580E00895A3
:1001A0000097C9F16623E1F06130B9F5DC01EC910B
:1001B000F0E0EE0FFF1FED59FF4F0190F081E02DB1
:1001C000408121E030E0B90111960C9002C0660F29
:1001D000771F0A94E2F7CB01842B808381E0089596
:1001E000DC01EC91F0E0EE0FFF1FED59FF4F0190A5
:1001F000F081E02D408121E030E0B90111960C90B2
:1002000002C0660F771F0A94E2F7CB018095842322
:10021000808381E0089580E0089580E0089500974C
:10022000D1F0DC01EC91F0E0EE0FFF1FED59FF4F34
:100230000190F081E02D408121E030E0B90111967C
:100240000C9002C0660F771F0A94E2F7CB01842757
:10025000808381E0089580E008951F920F920FB689
:100260000F9211242F933F934F935F936F937F933C
:100270008F939F93AF93BF93EF93FF93E091780099
:10028000F0917900309709F00995FF91EF91BF91B6
:10029000AF919F918F917F916F915F914F913F911E
:1002A0002F910F900FBE0F901F9018951F920F92D5
:1002B0000FB60F9211242F933F934F935F936F9339
:1002C0007F938F939F93AF93BF93EF93FF93E091AF
:1002D0007600F0917700309709F00995FF91EF9142
:1002E000BF91AF919F918F917F916F915F914F914E
:1002F0003F912F910F900FBE0F901F9018951F9256
:100300000F920FB60F9211242F933F934F935F9349
:100310006F937F938F939F93AF93BF93EF93FF93CD
:10032000E0917400F0917500309709F00995FF9104
:10033000EF91BF91AF919F918F917F916F915F915D
:100340004F913F912F910F900FBE0F901F901895D6
:100350001F920F920FB60F9211242F933F934F933A
:100360005F936F937F938F939F93AF93BF93EF931D
:10037000FF93E0917C00F0917D00309709F00995A2
:10038000FF91EF91BF91AF919F918F917F916F916D
:100390005F914F913F912F910F900FBE0F901F9043
:1003A00018951F920F920FB60F9211242F933F931F
:1003B0004F935F936F937F938F939F93AF93BF936D
:1003C000EF93FF93E0917A00F0917B00309709F072
:1003D0000995FF91EF91BF91AF919F918F917F917F
:1003E0006F915F914F913F912F910F900FBE0F90A2
:0803F0001F901895F894FFCF4F
:1003F8000300003B003800350032003A0037003473
:0404080000310000BF
:00000001FF
